:100000000C9451010C9482010C9482010C94820195
:100010000C9482010C9482010C9482010C94820154
:100020000C9482010C9482010C9482010C94820144
:100030000C9482010C9482010C9482010C94820134
:100040000C9482010C9482010C9482010C94820124
:100050000C9482010C9482010C9482010C949F05F3
:100060000C9482010C9413060C94E9050C94820103
:100070000C9482010C9482010C9482010C948201F4
:100080000C9482010C9482010C9482010C948201E4
:100090000C9482010C9482010C9482010C948007D0
:1000A0000C9482010C9482010C9482010C948201C4
:1000B0000C9482010C9482010C9482010C948201B4
:1000C0000C9482010C9482010C9482010C948201A4
:1000D0000C9482010C9482010C9482010C94820194
:1000E0000C948201CD04D004BF04C304C7040705E7
:1000F000D404D804DE04E204E604EC04F004F404BE
:100100000705FA04FE0402050C94F4040C94D004D0
:100110000C94D4040C94A4090C94D8040C94EC040E
:100120000C9431020C94DE020C9485020C94DE04D3
:100130000C94FA040C94C7040C94D5030C94990203
:100140000C94D2010C94FE040C94AA090C94BB01EB
:100150000C94CD040C94AD010C9445020C94E6046F
:100160000C94CA010C94F0040C94F6030C9425032F
:100170000C9407050C941B050C94AC010C945A02CA
:100180000C94BF040C94A7020C94C3040C940205B5
:100190000C94E2040C94020200000A0B02090C0DFC
:1001A0000E0807030401000000000000000000002A
:1001B000000000000000000000000000000000003F
:1001C00000000000121110000000000000000000FC
:1001D000000000000000000000000000000000001F
:1001E0002200250028002B002E00310034000201DF
:1001F0000000050108010B01000021002400270078
:100200002A002D0030003300010100000401070125
:100210000A0105050505070508080808020202028B
:100220000A0A080804040404010101010101010192
:100230000303030303030303040707070C0C0C0C5D
:100240000C0C0C0C02020202060606060606060646
:100250000B0B0B0B0B0B0B0B0102102020080810D3
:100260002040102040800201020108040201010226
:1002700004081020408080402010080402018004FF
:10028000020180402010080402010804020101025A
:100290000408102040800102040810204080AA09B0
:1002A000A40911241FBECFEFD1E2DEBFCDBF00E015
:1002B0000CBF12E0A0E0B2E0E2EEF9E100E00BBF1B
:1002C00002C007900D92A235B107D9F723E0A2E54D
:1002D000B2E001C01D92AE3BB207E1F711E0C0E50C
:1002E000D1E000E006C021970109802FFE010E94A5
:1002F0008A0ACF34D10780E00807A9F70E94B20824
:100300000C94DF0C0C94000040917D02262F30E00D
:10031000240F311D21323105DCF42091800224307C
:10032000C9F4FC0180E090E0861758F430917D021A
:100330002191DC01A35ABD4FA30FB11D2C9301964F
:10034000F3CF80917D02680F60937D0280E0089575
:1003500081E0089582E00895089581E090E0309171
:100360005C0220915B02321710F480E090E09195DE
:1003700081959109089580915C0290915B028917A3
:1003800030F48F5F80935C0280E090E008958FEFFF
:100390009FEF089580915B0290E020915C02821BA8
:1003A00091090895CF92DF92EF92FF920F931F93DE
:1003B000CF93DF937C01262F972F8A0180918102B2
:1003C000882391F0C62FD72F6E01C40ED51ECC15F1
:1003D000DD0571F06991D701ED91FC910190F081FB
:1003E000E02DC7011995F3CF642F822F0E9484015D
:1003F000C801DF91CF911F910F91FF90EF90DF9097
:10040000CF900895CF93DF931F92CDB7DEB7698366
:10041000209181022223D1F02091A402203240F0C9
:1004200021E030E0FC013383228380E090E015C0BE
:1004300080918202E82FF0E0ED57FD4F9981908383
:100440008F5F809382028093A40205C061E0CE0199
:1004500001960E94840181E090E00F90DF91CF919E
:10046000089521E001C0220F6A95EAF7DC011C968D
:100470002C931C971A965C934E931997ED91FC91CF
:100480000084F185E02D60E01994DC01ED91FC9190
:100490000284F385E02D41E0199581E090E0089514
:1004A000DC01ED91FC910284F385E02D40E019948C
:1004B00008950895CF92DF92EF92FF920F931F93CA
:1004C000CF93DF936C017A018B01C0E0D0E0CE15B1
:1004D000DF0589F0D8016D918D01D601ED91FC9178
:1004E0000190F081E02DC6011995892B11F47E0150
:1004F00002C02196ECCFC701DF91CF911F910F91E0
:10050000FF90EF90DF90CF900895FC01918D828D48
:10051000981761F0828DDF01A80FB11D5D968C9157
:10052000928D9F5F9F73928F90E008958FEF9FEF62
:100530000895FC01918D828D981731F0828DE80F1E
:10054000F11D858D90E008958FEF9FEF0895FC01D8
:10055000918D228D892F90E0805C9F4F821B9109A5
:100560008F739927089581EB92E00E94A70221E002
:10057000892B09F420E0822F0895FC01848DDF018E
:10058000A80FB11DA35ABF4F2C91848D90E0019606
:100590008F739927848FA689B7892C93A089B189F5
:1005A0008C9180648C93938D848D981306C00288FF
:1005B000F389E02D80818F7D80830895EF92FF92F3
:1005C0000F931F93CF93DF93EC0181E0888F9B8D76
:1005D0008C8D981305C0E889F989808185FD24C038
:1005E000F62E0B8D10E00F5F1F4F0F731127E02EBB
:1005F0008C8DE8120CC00FB607FCFACFE889F98998
:10060000808185FFF5CFCE010E94BD02F1CF8B8D99
:10061000FE01E80FF11DE35AFF4FF0820B8FEA89CC
:10062000FB898081806207C0EE89FF896083E88949
:10063000F98980818064808381E090E0DF91CF91AF
:100640001F910F91FF90EF900895CF93DF93EC01EE
:10065000888D8823C9F0EA89FB89808185FD05C0E2
:10066000A889B9898C9186FD0FC00FB607FCF5CF1C
:10067000808185FFF2CFA889B9898C9185FFEDCF64
:10068000CE010E94BD02E7CFDF91CF91089580E0B7
:1006900090E0892B21F00E94B302811125C080E0F7
:1006A00090E0892B41F080E090E0892B21F00E94BE
:1006B000000081111CC080E090E0892B41F080E0B7
:1006C00090E0892B21F00E940000811113C080E08E
:1006D00090E0892BA1F080E090E0892B81F00E94CE
:1006E000000081110AC008950E940000D8CF0E9426
:1006F0000000E1CF0E940000EACF0C9400000895B2
:10070000FC0123812223B9F09181909569236083B4
:10071000828191E0909381028093A30210928202E1
:100720001092A40285EA92E00E9402020E9423072E
:10073000282F30E002C020E030E081E090E0232B61
:1007400011F080E090E00895EF92FF920F931F93D5
:10075000CF938C01FC01759684E0C0E060FF02C07D
:100760009081C92B6695815031968111F7CF413028
:1007700011F4F8014489F8018585C82BC42B780150
:10078000FEE0EF0EF11CF80162896C2BC7010E949C
:100790008003F801628960956C23C701CF911F9196
:1007A0000F91FF90EF900C9480030F931F93CF93C2
:1007B000DF93062F0F70423019F440E0602F10C015
:1007C000142F262FEC0130E0B90184E07595679570
:1007D0008A95E1F7CE010E94A403412F602FCE013C
:1007E000DF91CF911F910F910C94A403FC0184859C
:1007F0008823A9F0218532852115310519F461116D
:1008000006C007C02130310521F4611102C085877F
:1008100001C015866585CF010E960C94800308955E
:100820000F931F93CF93DF93EC01423018F08C812C
:1008300088608C834F836887222329F0413019F424
:100840008C8184608C830E94EC066C8164FD31C0D5
:10085000E881F9810284F385E02D42E063E0CE0176
:1008600019958BE496E40197F1F7E881F981028408
:10087000F385E02D42E063E0CE01199503E512E037
:10088000C8010197F1F7E881F9810284F385E02D31
:1008900042E063E0CE011995C8010197F1F7E881C4
:1008A000F9810284F385E02D42E062E0CE011995E2
:1008B00017C06062CE010E9450028BE496E401975B
:1008C000F1F76C816062CE010E94500203E512E0F4
:1008D000C8010197F1F76C816062CE010E9450025D
:1008E000C8010197F1F76C816062CE010E9450024D
:1008F0008BEE90E00197F1F784E08D836CE0CE0100
:100900000E94500261E0CE010E9450028BE39FE101
:100910000197F1F782E08E8366E0CE010E945002DB
:10092000E881F9810084F185E02D6FEFCE01DF9140
:10093000CF911F910F9119940E94A80C362F90E02F
:10094000FC01E856FE4F4491FC01E85AFD4F24910A
:10095000FC01EE5EFD4F9491992309F46BC0442392
:1009600009F455C050E0FA013197E231F10508F081
:100970004EC08827EE58FF4F8F4F0C948A0A809103
:1009800080008F7707C0809180008F7D03C08091A9
:100990008000877F809380003AC084B58F7702C043
:1009A00084B58F7D84BD33C08091B0008F7703C044
:1009B0008091B0008F7D8093B00029C0809190001D
:1009C0008F7707C0809190008F7D03C08091900049
:1009D000877F809390001BC08091A0008F7707C015
:1009E0008091A0008F7D03C08091A000877F8093BD
:1009F000A0000DC0809120018F7707C08091200159
:100A00008F7D03C080912001877F80932001E92F93
:100A1000F0E0EE0FFF1FE252FE4FA591B4918FB7A9
:100A2000F894EC91311103C020952E2301C02E2B98
:100A30002C938FBF0895EF92FF920F931F93CF9344
:100A4000DF93EC01062FF42EE22E8B85888B10921B
:100A50005C0210925B02109282021092A402109229
:100A6000800211E010937F0210927E0261E084E127
:100A70000E949E0461E085E10E949E048091B9007D
:100A80008E7F8093B9008091B9008D7F8093B900EB
:100A900088E48093B80085E48093BC008889109333
:100AA00081028093A302109282021092A4020E94FB
:100AB000230791E0811190E0998B992329F085EA31
:100AC00092E00E94BB018E878989882339F01F86B6
:100AD0001C8260E0CE010E960E9480032E2D4F2DC9
:100AE000602FCE01DF91CF911F910F91FF90EF907A
:100AF0000C9410043FB7F8948091570290915802DB
:100B0000A0915902B0915A0226B5A89B05C02F3F6B
:100B100019F00196A11DB11D3FBFBA2FA92F982F23
:100B20008827820F911DA11DB11DBC01CD0142E09E
:100B3000660F771F881F991F4A95D1F708951F9256
:100B40000F920FB60F9211242F933F938F939F9381
:100B5000AF93BF938091530290915402A09155029C
:100B6000B09156023091520223E0230F2D3720F42A
:100B70000196A11DB11D05C026E8230F0296A11DF7
:100B8000B11D209352028093530290935402A0937C
:100B90005502B09356028091570290915802A0914D
:100BA0005902B0915A020196A11DB11D80935702BE
:100BB00090935802A0935902B0935A02BF91AF91FB
:100BC0009F918F913F912F910F900FBE0F901F908B
:100BD00018951F920F920FB60F9211240BB60F9219
:100BE0002F933F934F935F936F937F938F939F9335
:100BF000AF93BF93EF93FF9381EB92E00E94BD020E
:100C0000FF91EF91BF91AF919F918F917F916F91E4
:100C10005F914F913F912F910F900BBE0F900FBEA0
:100C20000F901F9018951F920F920FB60F921124DC
:100C30000BB60F922F938F939F93EF93FF93E091B7
:100C4000C102F091C2028081E091C702F091C80216
:100C500082FD12C090818091CA028F5F8F732091B4
:100C6000CB02821751F0E091CA02F0E0EF54FD4F41
:100C7000958F8093CA0201C08081FF91EF919F916F
:100C80008F912F910F900BBE0F900FBE0F901F9062
:100C9000189585ED8093BC008091BC0084FDFCCF4D
:100CA00010928002089590E0FC01E85AFD4F2491D3
:100CB000FC01EE5EFD4F8491882399F090E0880F4F
:100CC000991FFC01E850FE4FA591B491FC01E2523E
:100CD000FE4F859194918FB7F894EC91E22BEC93B1
:100CE0008FBF0895009769F0FC0101900020E9F79B
:100CF0003197AF01481B590BBC0181EB92E00C947A
:100D00005A0280E090E008958F929F92AF92BF9236
:100D10000F931F93CF93DF93CDB7DEB7A1970FB695
:100D2000F894DEBF0FBECDBF19A2423008F44AE0EE
:100D30008E010F5D1F4F842E912CA12CB12CA5018B
:100D400094010E94BD0CE62FB901CA01015011099E
:100D5000EA3014F4E05D01C0E95CD801EC93232B88
:100D6000242B252B61F7C8010E947206A1960FB6AD
:100D7000F894DEBF0FBECDBFDF91CF911F910F91D1
:100D8000BF90AF909F908F900895CF92DF92EF9297
:100D9000FF92CF93DF936B017C01E091B102F09160
:100DA000B2020190F081E02D6DE281EB92E01995A5
:100DB000EC0166277727CB016C197D098E099F0905
:100DC0004AE00E9484068C0F9D1FDF91CF91FF9017
:100DD000EF90DF90CF9008958F929F92AF92BF9245
:100DE000CF92DF92EF92FF920E947A054B015C0155
:100DF00084E6C82ED12CE12CF12C0E947A05DC016E
:100E0000CB0188199909AA09BB09883E9340A1051D
:100E1000B10558F021E0C21AD108E108F10888EEC6
:100E2000880E83E0981EA11CB11CC114D104E104FA
:100E3000F10419F7FF90EF90DF90CF90BF90AF9043
:100E40009F908F9008952091A4029091A302213247
:100E500008F04AC0809180028111FCCF32E03093CB
:100E6000800231E030937F023FEF3093B90310925C
:100E7000B8032093B703A3E8B2E047E953E0FA01CF
:100E80003E2F341B321718F43D913193F9CF109255
:100E9000960320919603990F922B9093960390912D
:100EA0007E02913061F410927E02909196039093AD
:100EB000BB009091BC0093FDF8CF95EC01C095EE7E
:100EC0009093BC00909180029230E1F39091B9032D
:100ED0009F3F79F08091B903803241F08091B9034E
:100EE000803331F084E005C081E003C082E001C0BE
:100EF00083E0109282021092A4021092810208955F
:100F00001F920F920FB60F9211240BB60F922F93D0
:100F10003F934F935F936F937F938F939F93AF9381
:100F2000BF93EF93FF938091B900887F803609F4D7
:100F30009CC068F5883209F45BC090F4803109F4F4
:100F400054C038F4882309F4F6C0883009F44DC041
:100F5000F6C0883109F44CC0803209F45DC0EFC09E
:100F6000803409F468C048F4803309F455C08833EC
:100F700009F0E5C08093B903D8C0803509F44FC0AB
:100F8000883509F45DC0883409F0D9C0D6C08839E5
:100F900009F4C7C0A8F4883709F467C038F4883664
:100FA00009F463C0803709F460C0C9C0883809F407
:100FB000B8C0803909F45FC0803809F0C0C05BC098
:100FC000803B09F486C038F4803A09F466C0883A58
:100FD00009F47FC0B4C0803C09F4A7C0883C09F480
:100FE000A4C0883B09F48AC0AAC08091960310C0AF
:100FF0009091B8038091B703981770F5E091B8030A
:1010000081E08E0F8093B803F0E0E956FC4F8081B9
:101010008093BB0085EC86C08093B9038EC0E091BD
:10102000B80381E08E0F8093B8038091BB00F0E09D
:10103000E956FC4F80839091B8038091B7036EC04E
:10104000E091B80381E08E0F8093B8038091BB00DC
:10105000F0E0E956FC4F808380917F0281116DC0E2
:1010600081E080937E0284EA61C083E08093800205
:1010700010929503CFCF80919503803208F051C034
:10108000E091950381E08E0F809395038091BB00E2
:10109000F0E0EB58FC4F8083BDCF85EC8093BC0023
:1010A0001092800280919503803230F4E091950394
:1010B000F0E0EB58FC4F10826091950370E0E091F6
:1010C0007303F091740385E793E0199510929503EB
:1010D00036C084E0809380021092720310927D02E9
:1010E000E0917003F0917103199580917D02811157
:1010F00005C081E080937D0210925D02E091720351
:1011000081E08E0F80937203F0E0E35AFD4F8081FF
:101110008093BB009091720380917D02981708F430
:1011200079CF85E88093BC000AC085EC8093BC0031
:101130001092800204C01092B9030E944906FF91E8
:10114000EF91BF91AF919F918F917F916F915F913F
:101150004F913F912F910F900BBE0F900FBE0F90AC
:101160001F901895789484B5826084BD84B58160A1
:1011700084BD85B5826085BD85B5816085BD809162
:101180006E00816080936E001092810080918100DA
:1011900082608093810080918100816080938100D2
:1011A000809180008160809380008091B100846094
:1011B0008093B1008091B00081608093B0008091F5
:1011C0009100826080939100809191008160809372
:1011D0009100809190008160809390008091A100A7
:1011E00082608093A1008091A10081608093A10022
:1011F0008091A00081608093A00080912101826095
:10120000809321018091210181608093210180914F
:10121000200181608093200180917A008460809316
:101220007A0080917A00826080937A0080917A00BF
:10123000816080937A0080917A00806880937A0040
:101240001092C100E091C102F091C20282E080835D
:10125000E091BD02F091BE021082E091BF02F091D8
:10126000C0028FEC80831092C902E091C502F09118
:10127000C60286E08083E091C302F091C4028081BF
:1012800080618083E091C302F091C4028081886014
:101290008083E091C302F091C402808180688083E2
:1012A000E091C302F091C40280818F7D808320E0B1
:1012B00044E064E187E593E00E941B0588E00E941A
:1012C000530689E00E945306E0915703F0915803BA
:1012D0000084F185E02D6FEF87E593E01995C1E07B
:1012E000809150038C27809350038AE392E00E9400
:1012F00072066091500370E080E090E04AE00E9446
:10130000840685E492E00E94720660914E0370911B
:101310004F03072E000C880B990B97FF03C00E9408
:10132000C50603C04AE00E9484068FE492E00E9452
:1013300072066091500380914E030E949E040E94A9
:10134000EC060E944703CCCF809151039091520349
:101350000C94270B1092A8021092A70288EE93E03B
:10136000A0E0B0E08093A9029093AA02A093AB0200
:10137000B093AC022EE032E03093A6022093A50297
:101380001092B4021092B3028093B5029093B60209
:10139000A093B702B093B8028EE192E09093B202AC
:1013A0008093B10285EC90E09093BE028093BD02E1
:1013B00084EC90E09093C0028093BF0280EC90E0B8
:1013C0009093C2028093C10281EC90E09093C4029A
:1013D0008093C30282EC90E09093C6028093C50292
:1013E00086EC90E09093C8028093C7021092CA02E4
:1013F0001092CB021092CC021092CD0210925A039E
:10140000109259038EE292E0909358038093570311
:10141000109267038FEF809366031092650310921A
:1014200068038FE380936203109263031092640356
:10143000109261031092600384E08093690382E05C
:1014400080936A0381E080936B0380E180936C0357
:1014500080E280936D0380E480936E0380E8809344
:101460006F0340E050E063E087E593E00E943102C3
:10147000109252031092510310925403109253038E
:10148000109256031092550361E070E080E090E006
:101490000E94BF0B009789F09093520380935103F1
:1014A0001092540310925303209155033091560328
:1014B000232B39F5FC01108224C0809151039091B7
:1014C0005203009711F00E94270B109252031092C2
:1014D0005103109256031092550310925403109228
:1014E0005303109250038DE090E090934F0380934C
:1014F0004E030E9453066091500380914E030C945A
:101500009E04109256031092550361E572E00E940A
:10151000B60CE7CFEE0FFF1F881F8BBF0790F69129
:10152000E02D1994CF93DF938230910510F482E07F
:1015300090E0E091BC03F091BD0320E030E0C0E01A
:10154000D0E0309711F14081518148175907C0F020
:101550004817590761F482819381209719F09B8382
:101560008A832BC09093BD038093BC0326C02115B2
:10157000310519F04217530718F49A01BE01DF0133
:10158000EF010280F381E02DDCCF2115310509F157
:10159000281B390B2430310590F412968D919C91C3
:1015A00013976115710521F0FB019383828304C0B9
:1015B0009093BD038093BC03FD01329644C0FD01AE
:1015C000E20FF31F81939193225031092D933C93A5
:1015D0003AC02091BA033091BB03232B41F42091F0
:1015E0000202309103023093BB032093BA0320918F
:1015F0000002309101022115310541F42DB73EB7AB
:101600004091040250910502241B350BE091BA036E
:10161000F091BB03E217F307A0F42E1B3F0B281732
:10162000390778F0AC014E5F5F4F2417350748F05B
:101630004E0F5F1F5093BB034093BA038193919366
:1016400002C0E0E0F0E0CF01DF91CF9108950F9369
:101650001F93CF93DF93009709F48CC0FC0132975E
:10166000138212820091BC031091BD030115110574
:1016700081F420813181820F931F2091BA03309130
:10168000BB032817390779F5F093BB03E093BA033E
:1016900071C0D80140E050E0AE17BF0750F4129679
:1016A0002D913C911397AD012115310509F1D90117
:1016B000F3CF9D01DA013383228360817181860F2C
:1016C000971F8217930769F4EC0128813981260F4F
:1016D000371F2E5F3F4F318320838A819B81938305
:1016E0008283452B29F4F093BD03E093BC0342C0F1
:1016F0001396FC93EE931297ED01499159919E0137
:10170000240F351FE217F30771F480819181840F54
:10171000951F029611969C938E93828193811396C6
:101720009C938E931297E0E0F0E0D80112968D9191
:101730009C911397009719F0F8018C01F6CF8D91C9
:101740009C9198012E5F3F4F820F931F2091BA0307
:101750003091BB032817390769F4309729F41092A8
:10176000BD031092BC0302C0138212821093BB030C
:101770000093BA03DF91CF911F910F9108956F925B
:101780007F928F929F92AF92BF92CF92DF92EF9211
:10179000FF920F931F93CF93DF93EC01009789F48F
:1017A000CB01DF91CF911F910F91FF90EF90DF90D0
:1017B000CF90BF90AF909F908F907F906F900C9440
:1017C000920AFC01E60FF71F9C0122503109E21733
:1017D000F30708F4ACC0D9010D911C9111970617BD
:1017E0001707B0F00530110508F49FC0C801049731
:1017F0008617970708F499C002501109061B170BAA
:10180000019311936D937C93CF010E94270B8DC0A0
:101810005B01A01AB10A4C01800E911EA091BC037D
:10182000B091BD0340E050E0E12CF12C109709F499
:101830004AC0A815B905D1F56D907C901197630148
:1018400082E0C80ED11CCA14DB0480F1A3014A193E
:101850005B096A0182E0C80ED11C1296BC901297F7
:101860001396AC91B5E0CB16D10440F0B282A383BD
:1018700051834083D9016D937C930AC00E5F1F4F43
:10188000C301800F911FF90191838083EB2DFA2F03
:10189000E114F10431F0D7011396FC93EE93129703
:1018A00044C0F093BD03E093BC033FC08D919C9175
:1018B00011974817590708F4AC017D0112960D9055
:1018C000BC91A02DB3CF8091BA039091BB03881532
:1018D0009905E1F446175707C8F4809100029091EA
:1018E0000102009741F48DB79EB7409104025091D8
:1018F0000502841B950BE817F907C8F4F093BB03A6
:10190000E093BA03F901718360830FC0CB010E9499
:10191000920A7C01009759F0A801BE010E94AD0C0B
:10192000CE010E94270BC70104C0CE0102C080E097
:1019300090E0DF91CF911F910F91FF90EF90DF909A
:10194000CF90BF90AF909F908F907F906F900895B1
:1019500081E090E0F8940C94DF0CFB01DC0102C004
:1019600001900D9241505040D8F70895FB01DC01E1
:1019700001900D920020E1F70895A1E21A2EAA1B12
:10198000BB1BFD010DC0AA1FBB1FEE1FFF1FA2172F
:10199000B307E407F50720F0A21BB30BE40BF50B2C
:1019A000661F771F881F991F1A9469F760957095B5
:1019B000809590959B01AC01BD01CF01089511E088
:1019C000C0E5D1E000E006C0802FFE010E948A0A37
:1019D0002196011DC135D10780E00807A9F7F894C9
:0219E000FFCF37
:1019E2000000BE03800001000000000000000202AF
:1019F200D201CA01BB01AD01AC0100000000DE0250
:101A02005A02A7028502990225030000000045023E
:101A12005A021B053102F603D5034E6173746176D7
:101A2200756A692000206E612070696E7520000D54
:021A32000A00A8
:00000001FF
